{
  "contracts/AA/Paymaster.sol": {
    "Paymaster": {
      "abi": [
        {
          "inputs": [
            {
              "internalType": "address",
              "name": "_entryPoint",
              "type": "address"
            }
          ],
          "stateMutability": "nonpayable",
          "type": "constructor"
        },
        {
          "inputs": [
            {
              "internalType": "address",
              "name": "smartAccount",
              "type": "address"
            }
          ],
          "name": "addWhiteList",
          "outputs": [],
          "stateMutability": "nonpayable",
          "type": "function"
        },
        {
          "inputs": [],
          "name": "entryPoint",
          "outputs": [
            {
              "internalType": "address",
              "name": "",
              "type": "address"
            }
          ],
          "stateMutability": "view",
          "type": "function"
        },
        {
          "inputs": [],
          "name": "owner",
          "outputs": [
            {
              "internalType": "address",
              "name": "",
              "type": "address"
            }
          ],
          "stateMutability": "view",
          "type": "function"
        },
        {
          "inputs": [
            {
              "internalType": "address",
              "name": "smartAccount",
              "type": "address"
            }
          ],
          "name": "removeWhiteList",
          "outputs": [],
          "stateMutability": "nonpayable",
          "type": "function"
        },
        {
          "inputs": [
            {
              "internalType": "address",
              "name": "smartAccount",
              "type": "address"
            },
            {
              "internalType": "uint256",
              "name": "amount",
              "type": "uint256"
            }
          ],
          "name": "validatePaymasterUserOp",
          "outputs": [
            {
              "internalType": "bool",
              "name": "",
              "type": "bool"
            }
          ],
          "stateMutability": "view",
          "type": "function"
        },
        {
          "inputs": [
            {
              "internalType": "address",
              "name": "",
              "type": "address"
            }
          ],
          "name": "whiteList",
          "outputs": [
            {
              "internalType": "bool",
              "name": "",
              "type": "bool"
            }
          ],
          "stateMutability": "view",
          "type": "function"
        }
      ],
      "evm": {
        "bytecode": {
          "linkReferences": {},
          "object": "60c060405234801561001057600080fd5b506040516103fa3803806103fa83398101604081905261002f91610044565b6001600160a01b03166080523360a052610074565b60006020828403121561005657600080fd5b81516001600160a01b038116811461006d57600080fd5b9392505050565b60805160a05161034d6100ad6000396000818160cc0152818161014b015261026101526000818161010b01526101a3015261034d6000f3fe608060405234801561001057600080fd5b50600436106100625760003560e01c80632042e5c214610067578063372c12b11461007c5780638acfa3c5146100b45780638da5cb5b146100c7578063b0d691fe14610106578063e7cd4a041461012d575b600080fd5b61007a6100753660046102cb565b610140565b005b61009f61008a3660046102cb565b60006020819052908152604090205460ff1681565b60405190151581526020015b60405180910390f35b61009f6100c23660046102ed565b610196565b6100ee7f000000000000000000000000000000000000000000000000000000000000000081565b6040516001600160a01b0390911681526020016100ab565b6100ee7f000000000000000000000000000000000000000000000000000000000000000081565b61007a61013b3660046102cb565b610256565b336001600160a01b037f0000000000000000000000000000000000000000000000000000000000000000161461017557600080fd5b6001600160a01b03166000908152602081905260409020805460ff19169055565b6000336001600160a01b037f000000000000000000000000000000000000000000000000000000000000000016146101cd57600080fd5b6001600160a01b03831660009081526020819052604090205460ff166102395760405162461bcd60e51b815260206004820152601760248201527f596f75277265206e6f74206f6e2077686974654c697374000000000000000000604482015260640160405180910390fd5b662386f26fc1000082111561024d57600080fd5b50600192915050565b336001600160a01b037f0000000000000000000000000000000000000000000000000000000000000000161461028b57600080fd5b6001600160a01b03166000908152602081905260409020805460ff19166001179055565b80356001600160a01b03811681146102c657600080fd5b919050565b6000602082840312156102dd57600080fd5b6102e6826102af565b9392505050565b6000806040838503121561030057600080fd5b610309836102af565b94602093909301359350505056fea26469706673582212201208dd0daaa6452579a462fae78f8605562884d293890a57dff845320dcba4cf64736f6c63430008140033",
          "opcodes": "PUSH1 0xC0 PUSH1 0x40 MSTORE CALLVALUE DUP1 ISZERO PUSH2 0x10 JUMPI PUSH1 0x0 DUP1 REVERT JUMPDEST POP PUSH1 0x40 MLOAD PUSH2 0x3FA CODESIZE SUB DUP1 PUSH2 0x3FA DUP4 CODECOPY DUP2 ADD PUSH1 0x40 DUP2 SWAP1 MSTORE PUSH2 0x2F SWAP2 PUSH2 0x44 JUMP JUMPDEST PUSH1 0x1 PUSH1 0x1 PUSH1 0xA0 SHL SUB AND PUSH1 0x80 MSTORE CALLER PUSH1 0xA0 MSTORE PUSH2 0x74 JUMP JUMPDEST PUSH1 0x0 PUSH1 0x20 DUP3 DUP5 SUB SLT ISZERO PUSH2 0x56 JUMPI PUSH1 0x0 DUP1 REVERT JUMPDEST DUP2 MLOAD PUSH1 0x1 PUSH1 0x1 PUSH1 0xA0 SHL SUB DUP2 AND DUP2 EQ PUSH2 0x6D JUMPI PUSH1 0x0 DUP1 REVERT JUMPDEST SWAP4 SWAP3 POP POP POP JUMP JUMPDEST PUSH1 0x80 MLOAD PUSH1 0xA0 MLOAD PUSH2 0x34D PUSH2 0xAD PUSH1 0x0 CODECOPY PUSH1 0x0 DUP2 DUP2 PUSH1 0xCC ADD MSTORE DUP2 DUP2 PUSH2 0x14B ADD MSTORE PUSH2 0x261 ADD MSTORE PUSH1 0x0 DUP2 DUP2 PUSH2 0x10B ADD MSTORE PUSH2 0x1A3 ADD MSTORE PUSH2 0x34D PUSH1 0x0 RETURN INVALID PUSH1 0x80 PUSH1 0x40 MSTORE CALLVALUE DUP1 ISZERO PUSH2 0x10 JUMPI PUSH1 0x0 DUP1 REVERT JUMPDEST POP PUSH1 0x4 CALLDATASIZE LT PUSH2 0x62 JUMPI PUSH1 0x0 CALLDATALOAD PUSH1 0xE0 SHR DUP1 PUSH4 0x2042E5C2 EQ PUSH2 0x67 JUMPI DUP1 PUSH4 0x372C12B1 EQ PUSH2 0x7C JUMPI DUP1 PUSH4 0x8ACFA3C5 EQ PUSH2 0xB4 JUMPI DUP1 PUSH4 0x8DA5CB5B EQ PUSH2 0xC7 JUMPI DUP1 PUSH4 0xB0D691FE EQ PUSH2 0x106 JUMPI DUP1 PUSH4 0xE7CD4A04 EQ PUSH2 0x12D JUMPI JUMPDEST PUSH1 0x0 DUP1 REVERT JUMPDEST PUSH2 0x7A PUSH2 0x75 CALLDATASIZE PUSH1 0x4 PUSH2 0x2CB JUMP JUMPDEST PUSH2 0x140 JUMP JUMPDEST STOP JUMPDEST PUSH2 0x9F PUSH2 0x8A CALLDATASIZE PUSH1 0x4 PUSH2 0x2CB JUMP JUMPDEST PUSH1 0x0 PUSH1 0x20 DUP2 SWAP1 MSTORE SWAP1 DUP2 MSTORE PUSH1 0x40 SWAP1 KECCAK256 SLOAD PUSH1 0xFF AND DUP2 JUMP JUMPDEST PUSH1 0x40 MLOAD SWAP1 ISZERO ISZERO DUP2 MSTORE PUSH1 0x20 ADD JUMPDEST PUSH1 0x40 MLOAD DUP1 SWAP2 SUB SWAP1 RETURN JUMPDEST PUSH2 0x9F PUSH2 0xC2 CALLDATASIZE PUSH1 0x4 PUSH2 0x2ED JUMP JUMPDEST PUSH2 0x196 JUMP JUMPDEST PUSH2 0xEE PUSH32 0x0 DUP2 JUMP JUMPDEST PUSH1 0x40 MLOAD PUSH1 0x1 PUSH1 0x1 PUSH1 0xA0 SHL SUB SWAP1 SWAP2 AND DUP2 MSTORE PUSH1 0x20 ADD PUSH2 0xAB JUMP JUMPDEST PUSH2 0xEE PUSH32 0x0 DUP2 JUMP JUMPDEST PUSH2 0x7A PUSH2 0x13B CALLDATASIZE PUSH1 0x4 PUSH2 0x2CB JUMP JUMPDEST PUSH2 0x256 JUMP JUMPDEST CALLER PUSH1 0x1 PUSH1 0x1 PUSH1 0xA0 SHL SUB PUSH32 0x0 AND EQ PUSH2 0x175 JUMPI PUSH1 0x0 DUP1 REVERT JUMPDEST PUSH1 0x1 PUSH1 0x1 PUSH1 0xA0 SHL SUB AND PUSH1 0x0 SWAP1 DUP2 MSTORE PUSH1 0x20 DUP2 SWAP1 MSTORE PUSH1 0x40 SWAP1 KECCAK256 DUP1 SLOAD PUSH1 0xFF NOT AND SWAP1 SSTORE JUMP JUMPDEST PUSH1 0x0 CALLER PUSH1 0x1 PUSH1 0x1 PUSH1 0xA0 SHL SUB PUSH32 0x0 AND EQ PUSH2 0x1CD JUMPI PUSH1 0x0 DUP1 REVERT JUMPDEST PUSH1 0x1 PUSH1 0x1 PUSH1 0xA0 SHL SUB DUP4 AND PUSH1 0x0 SWAP1 DUP2 MSTORE PUSH1 0x20 DUP2 SWAP1 MSTORE PUSH1 0x40 SWAP1 KECCAK256 SLOAD PUSH1 0xFF AND PUSH2 0x239 JUMPI PUSH1 0x40 MLOAD PUSH3 0x461BCD PUSH1 0xE5 SHL DUP2 MSTORE PUSH1 0x20 PUSH1 0x4 DUP3 ADD MSTORE PUSH1 0x17 PUSH1 0x24 DUP3 ADD MSTORE PUSH32 0x596F75277265206E6F74206F6E2077686974654C697374000000000000000000 PUSH1 0x44 DUP3 ADD MSTORE PUSH1 0x64 ADD PUSH1 0x40 MLOAD DUP1 SWAP2 SUB SWAP1 REVERT JUMPDEST PUSH7 0x2386F26FC10000 DUP3 GT ISZERO PUSH2 0x24D JUMPI PUSH1 0x0 DUP1 REVERT JUMPDEST POP PUSH1 0x1 SWAP3 SWAP2 POP POP JUMP JUMPDEST CALLER PUSH1 0x1 PUSH1 0x1 PUSH1 0xA0 SHL SUB PUSH32 0x0 AND EQ PUSH2 0x28B JUMPI PUSH1 0x0 DUP1 REVERT JUMPDEST PUSH1 0x1 PUSH1 0x1 PUSH1 0xA0 SHL SUB AND PUSH1 0x0 SWAP1 DUP2 MSTORE PUSH1 0x20 DUP2 SWAP1 MSTORE PUSH1 0x40 SWAP1 KECCAK256 DUP1 SLOAD PUSH1 0xFF NOT AND PUSH1 0x1 OR SWAP1 SSTORE JUMP JUMPDEST DUP1 CALLDATALOAD PUSH1 0x1 PUSH1 0x1 PUSH1 0xA0 SHL SUB DUP2 AND DUP2 EQ PUSH2 0x2C6 JUMPI PUSH1 0x0 DUP1 REVERT JUMPDEST SWAP2 SWAP1 POP JUMP JUMPDEST PUSH1 0x0 PUSH1 0x20 DUP3 DUP5 SUB SLT ISZERO PUSH2 0x2DD JUMPI PUSH1 0x0 DUP1 REVERT JUMPDEST PUSH2 0x2E6 DUP3 PUSH2 0x2AF JUMP JUMPDEST SWAP4 SWAP3 POP POP POP JUMP JUMPDEST PUSH1 0x0 DUP1 PUSH1 0x40 DUP4 DUP6 SUB SLT ISZERO PUSH2 0x300 JUMPI PUSH1 0x0 DUP1 REVERT JUMPDEST PUSH2 0x309 DUP4 PUSH2 0x2AF JUMP JUMPDEST SWAP5 PUSH1 0x20 SWAP4 SWAP1 SWAP4 ADD CALLDATALOAD SWAP4 POP POP POP JUMP INVALID LOG2 PUSH5 0x6970667358 0x22 SLT KECCAK256 SLT ADDMOD 0xDD 0xD 0xAA 0xA6 GASLIMIT 0x25 PUSH26 0xA462FAE78F8605562884D293890A57DFF845320DCBA4CF64736F PUSH13 0x63430008140033000000000000 "
        },
        "methodIdentifiers": {
          "addWhiteList(address)": "e7cd4a04",
          "entryPoint()": "b0d691fe",
          "owner()": "8da5cb5b",
          "removeWhiteList(address)": "2042e5c2",
          "validatePaymasterUserOp(address,uint256)": "8acfa3c5",
          "whiteList(address)": "372c12b1"
        }
      }
    }
  }
}