{
  "contracts/RecordUsage.sol": {
    "RecordUsage": {
      "abi": [
        {
          "inputs": [
            {
              "internalType": "address",
              "name": "initial_owner",
              "type": "address"
            },
            {
              "internalType": "address",
              "name": "_rewardToken",
              "type": "address"
            }
          ],
          "stateMutability": "nonpayable",
          "type": "constructor"
        },
        {
          "inputs": [],
          "name": "CompanyNotApproved",
          "type": "error"
        },
        {
          "inputs": [],
          "name": "EnforcedPause",
          "type": "error"
        },
        {
          "inputs": [],
          "name": "ExpectedPause",
          "type": "error"
        },
        {
          "inputs": [],
          "name": "InvalidTimestamp",
          "type": "error"
        },
        {
          "inputs": [],
          "name": "InvalidTrackId",
          "type": "error"
        },
        {
          "inputs": [
            {
              "internalType": "address",
              "name": "owner",
              "type": "address"
            }
          ],
          "name": "OwnableInvalidOwner",
          "type": "error"
        },
        {
          "inputs": [
            {
              "internalType": "address",
              "name": "account",
              "type": "address"
            }
          ],
          "name": "OwnableUnauthorizedAccount",
          "type": "error"
        },
        {
          "inputs": [],
          "name": "ReentrancyGuardReentrantCall",
          "type": "error"
        },
        {
          "anonymous": false,
          "inputs": [
            {
              "indexed": true,
              "internalType": "address",
              "name": "company",
              "type": "address"
            },
            {
              "indexed": false,
              "internalType": "bool",
              "name": "approved",
              "type": "bool"
            }
          ],
          "name": "CompanyApproved",
          "type": "event"
        },
        {
          "anonymous": false,
          "inputs": [
            {
              "indexed": true,
              "internalType": "address",
              "name": "previousOwner",
              "type": "address"
            },
            {
              "indexed": true,
              "internalType": "address",
              "name": "newOwner",
              "type": "address"
            }
          ],
          "name": "OwnershipTransferred",
          "type": "event"
        },
        {
          "anonymous": false,
          "inputs": [
            {
              "indexed": false,
              "internalType": "address",
              "name": "account",
              "type": "address"
            }
          ],
          "name": "Paused",
          "type": "event"
        },
        {
          "anonymous": false,
          "inputs": [
            {
              "indexed": true,
              "internalType": "address",
              "name": "using_company",
              "type": "address"
            },
            {
              "indexed": true,
              "internalType": "uint256",
              "name": "track_id",
              "type": "uint256"
            },
            {
              "indexed": false,
              "internalType": "uint64",
              "name": "client_ts",
              "type": "uint64"
            },
            {
              "indexed": false,
              "internalType": "uint256",
              "name": "block_ts",
              "type": "uint256"
            },
            {
              "indexed": false,
              "internalType": "uint64",
              "name": "reward_amount",
              "type": "uint64"
            }
          ],
          "name": "PlayRecorded",
          "type": "event"
        },
        {
          "anonymous": false,
          "inputs": [
            {
              "indexed": true,
              "internalType": "address",
              "name": "company",
              "type": "address"
            },
            {
              "indexed": false,
              "internalType": "uint64",
              "name": "amount",
              "type": "uint64"
            }
          ],
          "name": "RewardMinted",
          "type": "event"
        },
        {
          "anonymous": false,
          "inputs": [
            {
              "indexed": false,
              "internalType": "address",
              "name": "account",
              "type": "address"
            }
          ],
          "name": "Unpaused",
          "type": "event"
        },
        {
          "inputs": [
            {
              "internalType": "address",
              "name": "",
              "type": "address"
            }
          ],
          "name": "approvedCompanies",
          "outputs": [
            {
              "internalType": "bool",
              "name": "",
              "type": "bool"
            }
          ],
          "stateMutability": "view",
          "type": "function"
        },
        {
          "inputs": [
            {
              "internalType": "address",
              "name": "",
              "type": "address"
            }
          ],
          "name": "companyTotalRewards",
          "outputs": [
            {
              "internalType": "uint256",
              "name": "",
              "type": "uint256"
            }
          ],
          "stateMutability": "view",
          "type": "function"
        },
        {
          "inputs": [
            {
              "internalType": "address",
              "name": "company",
              "type": "address"
            }
          ],
          "name": "getCompanyTotalRewards",
          "outputs": [
            {
              "internalType": "uint256",
              "name": "",
              "type": "uint256"
            }
          ],
          "stateMutability": "view",
          "type": "function"
        },
        {
          "inputs": [
            {
              "internalType": "uint256",
              "name": "track_id",
              "type": "uint256"
            }
          ],
          "name": "getTrackPlayCount",
          "outputs": [
            {
              "internalType": "uint256",
              "name": "",
              "type": "uint256"
            }
          ],
          "stateMutability": "view",
          "type": "function"
        },
        {
          "inputs": [],
          "name": "owner",
          "outputs": [
            {
              "internalType": "address",
              "name": "",
              "type": "address"
            }
          ],
          "stateMutability": "view",
          "type": "function"
        },
        {
          "inputs": [],
          "name": "pause",
          "outputs": [],
          "stateMutability": "nonpayable",
          "type": "function"
        },
        {
          "inputs": [],
          "name": "paused",
          "outputs": [
            {
              "internalType": "bool",
              "name": "",
              "type": "bool"
            }
          ],
          "stateMutability": "view",
          "type": "function"
        },
        {
          "inputs": [
            {
              "internalType": "uint256",
              "name": "track_id",
              "type": "uint256"
            },
            {
              "internalType": "uint64",
              "name": "client_ts",
              "type": "uint64"
            },
            {
              "internalType": "uint64",
              "name": "reward_amount",
              "type": "uint64"
            }
          ],
          "name": "recordPlay",
          "outputs": [],
          "stateMutability": "nonpayable",
          "type": "function"
        },
        {
          "inputs": [
            {
              "internalType": "address",
              "name": "using_company",
              "type": "address"
            },
            {
              "internalType": "uint256",
              "name": "track_id",
              "type": "uint256"
            },
            {
              "internalType": "uint64",
              "name": "client_ts",
              "type": "uint64"
            },
            {
              "internalType": "uint64",
              "name": "reward_amount",
              "type": "uint64"
            }
          ],
          "name": "recordPlayByOwner",
          "outputs": [],
          "stateMutability": "nonpayable",
          "type": "function"
        },
        {
          "inputs": [],
          "name": "renounceOwnership",
          "outputs": [],
          "stateMutability": "nonpayable",
          "type": "function"
        },
        {
          "inputs": [],
          "name": "rewardToken",
          "outputs": [
            {
              "internalType": "contract RewardToken",
              "name": "",
              "type": "address"
            }
          ],
          "stateMutability": "view",
          "type": "function"
        },
        {
          "inputs": [
            {
              "internalType": "address",
              "name": "company",
              "type": "address"
            },
            {
              "internalType": "bool",
              "name": "approved",
              "type": "bool"
            }
          ],
          "name": "setCompanyApproval",
          "outputs": [],
          "stateMutability": "nonpayable",
          "type": "function"
        },
        {
          "inputs": [
            {
              "internalType": "uint256",
              "name": "",
              "type": "uint256"
            }
          ],
          "name": "trackPlayCount",
          "outputs": [
            {
              "internalType": "uint256",
              "name": "",
              "type": "uint256"
            }
          ],
          "stateMutability": "view",
          "type": "function"
        },
        {
          "inputs": [
            {
              "internalType": "address",
              "name": "newOwner",
              "type": "address"
            }
          ],
          "name": "transferOwnership",
          "outputs": [],
          "stateMutability": "nonpayable",
          "type": "function"
        },
        {
          "inputs": [],
          "name": "unpause",
          "outputs": [],
          "stateMutability": "nonpayable",
          "type": "function"
        }
      ],
      "evm": {
        "bytecode": {
          "linkReferences": {},
          "object": "608060405234801561001057600080fd5b50604051610c4a380380610c4a83398101604081905261002f91610155565b816001600160a01b03811661005f57604051631e4fbdf760e01b8152600060048201526024015b60405180910390fd5b610068816100e9565b50600180556001600160a01b0381166100c35760405162461bcd60e51b815260206004820152601c60248201527f496e76616c69642072657761726420746f6b656e2061646472657373000000006044820152606401610056565b600280546001600160a01b0319166001600160a01b039290921691909117905550610188565b600080546001600160a01b038381166001600160a01b0319831681178455604051919092169283917f8be0079c531659141344cd1fd0a4f28419497f9722a3daafe3b4186f6b6457e09190a35050565b80516001600160a01b038116811461015057600080fd5b919050565b6000806040838503121561016857600080fd5b61017183610139565b915061017f60208401610139565b90509250929050565b610ab3806101976000396000f3fe608060405234801561001057600080fd5b50600436106100f55760003560e01c806382118e83116100975780638da5cb5b116100665780638da5cb5b1461020e578063b7e1665b14610233578063f2fde38b14610253578063f7c618c11461026657600080fd5b806382118e83146101aa5780638426265a146101ca5780638456cb59146101dd578063890e2134146101e557600080fd5b8063479c8b1f116100d3578063479c8b1f1461016a5780634f9725631461017d5780635c975abb14610190578063715018a6146101a257600080fd5b80630a149757146100fa5780630deb1331146101325780633f4ba83a14610160575b600080fd5b61011d61010836600461091e565b60036020526000908152604090205460ff1681565b60405190151581526020015b60405180910390f35b610152610140366004610940565b60009081526004602052604090205490565b604051908152602001610129565b610168610279565b005b610168610178366004610970565b61028b565b61016861018b3660046109bd565b61043b565b600054600160a01b900460ff1661011d565b61016861059c565b6101526101b836600461091e565b60056020526000908152604090205481565b6101686101d83660046109f9565b6105ae565b61016861066c565b6101526101f336600461091e565b6001600160a01b031660009081526005602052604090205490565b6000546001600160a01b03165b6040516001600160a01b039091168152602001610129565b610152610241366004610940565b60046020526000908152604090205481565b61016861026136600461091e565b61067c565b60025461021b906001600160a01b031681565b6102816106ba565b6102896106e7565b565b6102936106ba565b61029b61073c565b82806000036102bd576040516369f4331b60e01b815260040160405180910390fd5b826001600160401b03811615806102dc575042816001600160401b0316115b156102fa5760405163b7d0949760e01b815260040160405180910390fd5b610302610767565b6001600160a01b03861660009081526003602052604090205460ff166103665760405162461bcd60e51b815260206004820152601460248201527310dbdb5c185b9e481b9bdd08185c1c1c9bdd995960621b60448201526064015b60405180910390fd5b600085815260046020526040812080549161038083610a4b565b90915550506001600160a01b038616600090815260056020526040812080546001600160401b03861692906103b6908490610a64565b9091555050604080516001600160401b038681168252426020830152851681830152905186916001600160a01b038916917ff12fc1217c7fcb255d2408e92e128c684dacb9f3f6ff5aaba266ee07b1e68ea19181900360600190a36001600160401b0383161561042a5761042a8684610791565b61043360018055565b505050505050565b3360009081526003602052604090205460ff1661046b576040516316e1153960e01b815260040160405180910390fd5b61047361073c565b8280600003610495576040516369f4331b60e01b815260040160405180910390fd5b826001600160401b03811615806104b4575042816001600160401b0316115b156104d25760405163b7d0949760e01b815260040160405180910390fd5b6104da610767565b60008581526004602052604081208054916104f483610a4b565b909155505033600090815260056020526040812080546001600160401b0386169290610521908490610a64565b9091555050604080516001600160401b0386811682524260208301528516818301529051869133917ff12fc1217c7fcb255d2408e92e128c684dacb9f3f6ff5aaba266ee07b1e68ea19181900360600190a36001600160401b0383161561058c5761058c3384610791565b61059560018055565b5050505050565b6105a46106ba565b6102896000610845565b6105b66106ba565b6001600160a01b03821661060c5760405162461bcd60e51b815260206004820152601760248201527f496e76616c696420636f6d70616e792061646472657373000000000000000000604482015260640161035d565b6001600160a01b038216600081815260036020908152604091829020805460ff191685151590811790915591519182527f4ea7a07f6f43b3d25ac7e77ad1ae0ff61d744b3326cf448fe7e63176071e3fef91015b60405180910390a25050565b6106746106ba565b610289610895565b6106846106ba565b6001600160a01b0381166106ae57604051631e4fbdf760e01b81526000600482015260240161035d565b6106b781610845565b50565b6000546001600160a01b031633146102895760405163118cdaa760e01b815233600482015260240161035d565b6106ef6108d8565b6000805460ff60a01b191690557f5db9ee0a495bf2e6ff9c91a7834c1ba4fdd244a5e8aa4e537bd38aeae4b073aa335b6040516001600160a01b03909116815260200160405180910390a1565b600054600160a01b900460ff16156102895760405163d93c066560e01b815260040160405180910390fd5b60026001540361078a57604051633ee5aeb560e01b815260040160405180910390fd5b6002600155565b6002546040516340c10f1960e01b81526001600160a01b0384811660048301526001600160401b0384166024830152909116906340c10f1990604401600060405180830381600087803b1580156107e757600080fd5b505af19250505080156107f8575060015b15610841576040516001600160401b03821681526001600160a01b038316907ff264f72963676b4bbc99b22084bad9759178b150d93fa94c07965dee1e36516290602001610660565b5050565b600080546001600160a01b038381166001600160a01b0319831681178455604051919092169283917f8be0079c531659141344cd1fd0a4f28419497f9722a3daafe3b4186f6b6457e09190a35050565b61089d61073c565b6000805460ff60a01b1916600160a01b1790557f62e78cea01bee320cd4e420270b5ea74000d11b0c9f74754ebdbfc544b05a25861071f3390565b600054600160a01b900460ff1661028957604051638dfc202b60e01b815260040160405180910390fd5b80356001600160a01b038116811461091957600080fd5b919050565b60006020828403121561093057600080fd5b61093982610902565b9392505050565b60006020828403121561095257600080fd5b5035919050565b80356001600160401b038116811461091957600080fd5b6000806000806080858703121561098657600080fd5b61098f85610902565b9350602085013592506109a460408601610959565b91506109b260608601610959565b905092959194509250565b6000806000606084860312156109d257600080fd5b833592506109e260208501610959565b91506109f060408501610959565b90509250925092565b60008060408385031215610a0c57600080fd5b610a1583610902565b915060208301358015158114610a2a57600080fd5b809150509250929050565b634e487b7160e01b600052601160045260246000fd5b600060018201610a5d57610a5d610a35565b5060010190565b80820180821115610a7757610a77610a35565b9291505056fea2646970667358221220777dc55979525a5d072dd2767cd4aa2035d1e9c1704069238796a60240e8088164736f6c63430008140033",
          "opcodes": "PUSH1 0x80 PUSH1 0x40 MSTORE CALLVALUE DUP1 ISZERO PUSH2 0x10 JUMPI PUSH1 0x0 DUP1 REVERT JUMPDEST POP PUSH1 0x40 MLOAD PUSH2 0xC4A CODESIZE SUB DUP1 PUSH2 0xC4A DUP4 CODECOPY DUP2 ADD PUSH1 0x40 DUP2 SWAP1 MSTORE PUSH2 0x2F SWAP2 PUSH2 0x155 JUMP JUMPDEST DUP2 PUSH1 0x1 PUSH1 0x1 PUSH1 0xA0 SHL SUB DUP2 AND PUSH2 0x5F JUMPI PUSH1 0x40 MLOAD PUSH4 0x1E4FBDF7 PUSH1 0xE0 SHL DUP2 MSTORE PUSH1 0x0 PUSH1 0x4 DUP3 ADD MSTORE PUSH1 0x24 ADD JUMPDEST PUSH1 0x40 MLOAD DUP1 SWAP2 SUB SWAP1 REVERT JUMPDEST PUSH2 0x68 DUP2 PUSH2 0xE9 JUMP JUMPDEST POP PUSH1 0x1 DUP1 SSTORE PUSH1 0x1 PUSH1 0x1 PUSH1 0xA0 SHL SUB DUP2 AND PUSH2 0xC3 JUMPI PUSH1 0x40 MLOAD PUSH3 0x461BCD PUSH1 0xE5 SHL DUP2 MSTORE PUSH1 0x20 PUSH1 0x4 DUP3 ADD MSTORE PUSH1 0x1C PUSH1 0x24 DUP3 ADD MSTORE PUSH32 0x496E76616C69642072657761726420746F6B656E206164647265737300000000 PUSH1 0x44 DUP3 ADD MSTORE PUSH1 0x64 ADD PUSH2 0x56 JUMP JUMPDEST PUSH1 0x2 DUP1 SLOAD PUSH1 0x1 PUSH1 0x1 PUSH1 0xA0 SHL SUB NOT AND PUSH1 0x1 PUSH1 0x1 PUSH1 0xA0 SHL SUB SWAP3 SWAP1 SWAP3 AND SWAP2 SWAP1 SWAP2 OR SWAP1 SSTORE POP PUSH2 0x188 JUMP JUMPDEST PUSH1 0x0 DUP1 SLOAD PUSH1 0x1 PUSH1 0x1 PUSH1 0xA0 SHL SUB DUP4 DUP2 AND PUSH1 0x1 PUSH1 0x1 PUSH1 0xA0 SHL SUB NOT DUP4 AND DUP2 OR DUP5 SSTORE PUSH1 0x40 MLOAD SWAP2 SWAP1 SWAP3 AND SWAP3 DUP4 SWAP2 PUSH32 0x8BE0079C531659141344CD1FD0A4F28419497F9722A3DAAFE3B4186F6B6457E0 SWAP2 SWAP1 LOG3 POP POP JUMP JUMPDEST DUP1 MLOAD PUSH1 0x1 PUSH1 0x1 PUSH1 0xA0 SHL SUB DUP2 AND DUP2 EQ PUSH2 0x150 JUMPI PUSH1 0x0 DUP1 REVERT JUMPDEST SWAP2 SWAP1 POP JUMP JUMPDEST PUSH1 0x0 DUP1 PUSH1 0x40 DUP4 DUP6 SUB SLT ISZERO PUSH2 0x168 JUMPI PUSH1 0x0 DUP1 REVERT JUMPDEST PUSH2 0x171 DUP4 PUSH2 0x139 JUMP JUMPDEST SWAP2 POP PUSH2 0x17F PUSH1 0x20 DUP5 ADD PUSH2 0x139 JUMP JUMPDEST SWAP1 POP SWAP3 POP SWAP3 SWAP1 POP JUMP JUMPDEST PUSH2 0xAB3 DUP1 PUSH2 0x197 PUSH1 0x0 CODECOPY PUSH1 0x0 RETURN INVALID PUSH1 0x80 PUSH1 0x40 MSTORE CALLVALUE DUP1 ISZERO PUSH2 0x10 JUMPI PUSH1 0x0 DUP1 REVERT JUMPDEST POP PUSH1 0x4 CALLDATASIZE LT PUSH2 0xF5 JUMPI PUSH1 0x0 CALLDATALOAD PUSH1 0xE0 SHR DUP1 PUSH4 0x82118E83 GT PUSH2 0x97 JUMPI DUP1 PUSH4 0x8DA5CB5B GT PUSH2 0x66 JUMPI DUP1 PUSH4 0x8DA5CB5B EQ PUSH2 0x20E JUMPI DUP1 PUSH4 0xB7E1665B EQ PUSH2 0x233 JUMPI DUP1 PUSH4 0xF2FDE38B EQ PUSH2 0x253 JUMPI DUP1 PUSH4 0xF7C618C1 EQ PUSH2 0x266 JUMPI PUSH1 0x0 DUP1 REVERT JUMPDEST DUP1 PUSH4 0x82118E83 EQ PUSH2 0x1AA JUMPI DUP1 PUSH4 0x8426265A EQ PUSH2 0x1CA JUMPI DUP1 PUSH4 0x8456CB59 EQ PUSH2 0x1DD JUMPI DUP1 PUSH4 0x890E2134 EQ PUSH2 0x1E5 JUMPI PUSH1 0x0 DUP1 REVERT JUMPDEST DUP1 PUSH4 0x479C8B1F GT PUSH2 0xD3 JUMPI DUP1 PUSH4 0x479C8B1F EQ PUSH2 0x16A JUMPI DUP1 PUSH4 0x4F972563 EQ PUSH2 0x17D JUMPI DUP1 PUSH4 0x5C975ABB EQ PUSH2 0x190 JUMPI DUP1 PUSH4 0x715018A6 EQ PUSH2 0x1A2 JUMPI PUSH1 0x0 DUP1 REVERT JUMPDEST DUP1 PUSH4 0xA149757 EQ PUSH2 0xFA JUMPI DUP1 PUSH4 0xDEB1331 EQ PUSH2 0x132 JUMPI DUP1 PUSH4 0x3F4BA83A EQ PUSH2 0x160 JUMPI JUMPDEST PUSH1 0x0 DUP1 REVERT JUMPDEST PUSH2 0x11D PUSH2 0x108 CALLDATASIZE PUSH1 0x4 PUSH2 0x91E JUMP JUMPDEST PUSH1 0x3 PUSH1 0x20 MSTORE PUSH1 0x0 SWAP1 DUP2 MSTORE PUSH1 0x40 SWAP1 KECCAK256 SLOAD PUSH1 0xFF AND DUP2 JUMP JUMPDEST PUSH1 0x40 MLOAD SWAP1 ISZERO ISZERO DUP2 MSTORE PUSH1 0x20 ADD JUMPDEST PUSH1 0x40 MLOAD DUP1 SWAP2 SUB SWAP1 RETURN JUMPDEST PUSH2 0x152 PUSH2 0x140 CALLDATASIZE PUSH1 0x4 PUSH2 0x940 JUMP JUMPDEST PUSH1 0x0 SWAP1 DUP2 MSTORE PUSH1 0x4 PUSH1 0x20 MSTORE PUSH1 0x40 SWAP1 KECCAK256 SLOAD SWAP1 JUMP JUMPDEST PUSH1 0x40 MLOAD SWAP1 DUP2 MSTORE PUSH1 0x20 ADD PUSH2 0x129 JUMP JUMPDEST PUSH2 0x168 PUSH2 0x279 JUMP JUMPDEST STOP JUMPDEST PUSH2 0x168 PUSH2 0x178 CALLDATASIZE PUSH1 0x4 PUSH2 0x970 JUMP JUMPDEST PUSH2 0x28B JUMP JUMPDEST PUSH2 0x168 PUSH2 0x18B CALLDATASIZE PUSH1 0x4 PUSH2 0x9BD JUMP JUMPDEST PUSH2 0x43B JUMP JUMPDEST PUSH1 0x0 SLOAD PUSH1 0x1 PUSH1 0xA0 SHL SWAP1 DIV PUSH1 0xFF AND PUSH2 0x11D JUMP JUMPDEST PUSH2 0x168 PUSH2 0x59C JUMP JUMPDEST PUSH2 0x152 PUSH2 0x1B8 CALLDATASIZE PUSH1 0x4 PUSH2 0x91E JUMP JUMPDEST PUSH1 0x5 PUSH1 0x20 MSTORE PUSH1 0x0 SWAP1 DUP2 MSTORE PUSH1 0x40 SWAP1 KECCAK256 SLOAD DUP2 JUMP JUMPDEST PUSH2 0x168 PUSH2 0x1D8 CALLDATASIZE PUSH1 0x4 PUSH2 0x9F9 JUMP JUMPDEST PUSH2 0x5AE JUMP JUMPDEST PUSH2 0x168 PUSH2 0x66C JUMP JUMPDEST PUSH2 0x152 PUSH2 0x1F3 CALLDATASIZE PUSH1 0x4 PUSH2 0x91E JUMP JUMPDEST PUSH1 0x1 PUSH1 0x1 PUSH1 0xA0 SHL SUB AND PUSH1 0x0 SWAP1 DUP2 MSTORE PUSH1 0x5 PUSH1 0x20 MSTORE PUSH1 0x40 SWAP1 KECCAK256 SLOAD SWAP1 JUMP JUMPDEST PUSH1 0x0 SLOAD PUSH1 0x1 PUSH1 0x1 PUSH1 0xA0 SHL SUB AND JUMPDEST PUSH1 0x40 MLOAD PUSH1 0x1 PUSH1 0x1 PUSH1 0xA0 SHL SUB SWAP1 SWAP2 AND DUP2 MSTORE PUSH1 0x20 ADD PUSH2 0x129 JUMP JUMPDEST PUSH2 0x152 PUSH2 0x241 CALLDATASIZE PUSH1 0x4 PUSH2 0x940 JUMP JUMPDEST PUSH1 0x4 PUSH1 0x20 MSTORE PUSH1 0x0 SWAP1 DUP2 MSTORE PUSH1 0x40 SWAP1 KECCAK256 SLOAD DUP2 JUMP JUMPDEST PUSH2 0x168 PUSH2 0x261 CALLDATASIZE PUSH1 0x4 PUSH2 0x91E JUMP JUMPDEST PUSH2 0x67C JUMP JUMPDEST PUSH1 0x2 SLOAD PUSH2 0x21B SWAP1 PUSH1 0x1 PUSH1 0x1 PUSH1 0xA0 SHL SUB AND DUP2 JUMP JUMPDEST PUSH2 0x281 PUSH2 0x6BA JUMP JUMPDEST PUSH2 0x289 PUSH2 0x6E7 JUMP JUMPDEST JUMP JUMPDEST PUSH2 0x293 PUSH2 0x6BA JUMP JUMPDEST PUSH2 0x29B PUSH2 0x73C JUMP JUMPDEST DUP3 DUP1 PUSH1 0x0 SUB PUSH2 0x2BD JUMPI PUSH1 0x40 MLOAD PUSH4 0x69F4331B PUSH1 0xE0 SHL DUP2 MSTORE PUSH1 0x4 ADD PUSH1 0x40 MLOAD DUP1 SWAP2 SUB SWAP1 REVERT JUMPDEST DUP3 PUSH1 0x1 PUSH1 0x1 PUSH1 0x40 SHL SUB DUP2 AND ISZERO DUP1 PUSH2 0x2DC JUMPI POP TIMESTAMP DUP2 PUSH1 0x1 PUSH1 0x1 PUSH1 0x40 SHL SUB AND GT JUMPDEST ISZERO PUSH2 0x2FA JUMPI PUSH1 0x40 MLOAD PUSH4 0xB7D09497 PUSH1 0xE0 SHL DUP2 MSTORE PUSH1 0x4 ADD PUSH1 0x40 MLOAD DUP1 SWAP2 SUB SWAP1 REVERT JUMPDEST PUSH2 0x302 PUSH2 0x767 JUMP JUMPDEST PUSH1 0x1 PUSH1 0x1 PUSH1 0xA0 SHL SUB DUP7 AND PUSH1 0x0 SWAP1 DUP2 MSTORE PUSH1 0x3 PUSH1 0x20 MSTORE PUSH1 0x40 SWAP1 KECCAK256 SLOAD PUSH1 0xFF AND PUSH2 0x366 JUMPI PUSH1 0x40 MLOAD PUSH3 0x461BCD PUSH1 0xE5 SHL DUP2 MSTORE PUSH1 0x20 PUSH1 0x4 DUP3 ADD MSTORE PUSH1 0x14 PUSH1 0x24 DUP3 ADD MSTORE PUSH20 0x10DBDB5C185B9E481B9BDD08185C1C1C9BDD9959 PUSH1 0x62 SHL PUSH1 0x44 DUP3 ADD MSTORE PUSH1 0x64 ADD JUMPDEST PUSH1 0x40 MLOAD DUP1 SWAP2 SUB SWAP1 REVERT JUMPDEST PUSH1 0x0 DUP6 DUP2 MSTORE PUSH1 0x4 PUSH1 0x20 MSTORE PUSH1 0x40 DUP2 KECCAK256 DUP1 SLOAD SWAP2 PUSH2 0x380 DUP4 PUSH2 0xA4B JUMP JUMPDEST SWAP1 SWAP2 SSTORE POP POP PUSH1 0x1 PUSH1 0x1 PUSH1 0xA0 SHL SUB DUP7 AND PUSH1 0x0 SWAP1 DUP2 MSTORE PUSH1 0x5 PUSH1 0x20 MSTORE PUSH1 0x40 DUP2 KECCAK256 DUP1 SLOAD PUSH1 0x1 PUSH1 0x1 PUSH1 0x40 SHL SUB DUP7 AND SWAP3 SWAP1 PUSH2 0x3B6 SWAP1 DUP5 SWAP1 PUSH2 0xA64 JUMP JUMPDEST SWAP1 SWAP2 SSTORE POP POP PUSH1 0x40 DUP1 MLOAD PUSH1 0x1 PUSH1 0x1 PUSH1 0x40 SHL SUB DUP7 DUP2 AND DUP3 MSTORE TIMESTAMP PUSH1 0x20 DUP4 ADD MSTORE DUP6 AND DUP2 DUP4 ADD MSTORE SWAP1 MLOAD DUP7 SWAP2 PUSH1 0x1 PUSH1 0x1 PUSH1 0xA0 SHL SUB DUP10 AND SWAP2 PUSH32 0xF12FC1217C7FCB255D2408E92E128C684DACB9F3F6FF5AABA266EE07B1E68EA1 SWAP2 DUP2 SWAP1 SUB PUSH1 0x60 ADD SWAP1 LOG3 PUSH1 0x1 PUSH1 0x1 PUSH1 0x40 SHL SUB DUP4 AND ISZERO PUSH2 0x42A JUMPI PUSH2 0x42A DUP7 DUP5 PUSH2 0x791 JUMP JUMPDEST PUSH2 0x433 PUSH1 0x1 DUP1 SSTORE JUMP JUMPDEST POP POP POP POP POP POP JUMP JUMPDEST CALLER PUSH1 0x0 SWAP1 DUP2 MSTORE PUSH1 0x3 PUSH1 0x20 MSTORE PUSH1 0x40 SWAP1 KECCAK256 SLOAD PUSH1 0xFF AND PUSH2 0x46B JUMPI PUSH1 0x40 MLOAD PUSH4 0x16E11539 PUSH1 0xE0 SHL DUP2 MSTORE PUSH1 0x4 ADD PUSH1 0x40 MLOAD DUP1 SWAP2 SUB SWAP1 REVERT JUMPDEST PUSH2 0x473 PUSH2 0x73C JUMP JUMPDEST DUP3 DUP1 PUSH1 0x0 SUB PUSH2 0x495 JUMPI PUSH1 0x40 MLOAD PUSH4 0x69F4331B PUSH1 0xE0 SHL DUP2 MSTORE PUSH1 0x4 ADD PUSH1 0x40 MLOAD DUP1 SWAP2 SUB SWAP1 REVERT JUMPDEST DUP3 PUSH1 0x1 PUSH1 0x1 PUSH1 0x40 SHL SUB DUP2 AND ISZERO DUP1 PUSH2 0x4B4 JUMPI POP TIMESTAMP DUP2 PUSH1 0x1 PUSH1 0x1 PUSH1 0x40 SHL SUB AND GT JUMPDEST ISZERO PUSH2 0x4D2 JUMPI PUSH1 0x40 MLOAD PUSH4 0xB7D09497 PUSH1 0xE0 SHL DUP2 MSTORE PUSH1 0x4 ADD PUSH1 0x40 MLOAD DUP1 SWAP2 SUB SWAP1 REVERT JUMPDEST PUSH2 0x4DA PUSH2 0x767 JUMP JUMPDEST PUSH1 0x0 DUP6 DUP2 MSTORE PUSH1 0x4 PUSH1 0x20 MSTORE PUSH1 0x40 DUP2 KECCAK256 DUP1 SLOAD SWAP2 PUSH2 0x4F4 DUP4 PUSH2 0xA4B JUMP JUMPDEST SWAP1 SWAP2 SSTORE POP POP CALLER PUSH1 0x0 SWAP1 DUP2 MSTORE PUSH1 0x5 PUSH1 0x20 MSTORE PUSH1 0x40 DUP2 KECCAK256 DUP1 SLOAD PUSH1 0x1 PUSH1 0x1 PUSH1 0x40 SHL SUB DUP7 AND SWAP3 SWAP1 PUSH2 0x521 SWAP1 DUP5 SWAP1 PUSH2 0xA64 JUMP JUMPDEST SWAP1 SWAP2 SSTORE POP POP PUSH1 0x40 DUP1 MLOAD PUSH1 0x1 PUSH1 0x1 PUSH1 0x40 SHL SUB DUP7 DUP2 AND DUP3 MSTORE TIMESTAMP PUSH1 0x20 DUP4 ADD MSTORE DUP6 AND DUP2 DUP4 ADD MSTORE SWAP1 MLOAD DUP7 SWAP2 CALLER SWAP2 PUSH32 0xF12FC1217C7FCB255D2408E92E128C684DACB9F3F6FF5AABA266EE07B1E68EA1 SWAP2 DUP2 SWAP1 SUB PUSH1 0x60 ADD SWAP1 LOG3 PUSH1 0x1 PUSH1 0x1 PUSH1 0x40 SHL SUB DUP4 AND ISZERO PUSH2 0x58C JUMPI PUSH2 0x58C CALLER DUP5 PUSH2 0x791 JUMP JUMPDEST PUSH2 0x595 PUSH1 0x1 DUP1 SSTORE JUMP JUMPDEST POP POP POP POP POP JUMP JUMPDEST PUSH2 0x5A4 PUSH2 0x6BA JUMP JUMPDEST PUSH2 0x289 PUSH1 0x0 PUSH2 0x845 JUMP JUMPDEST PUSH2 0x5B6 PUSH2 0x6BA JUMP JUMPDEST PUSH1 0x1 PUSH1 0x1 PUSH1 0xA0 SHL SUB DUP3 AND PUSH2 0x60C JUMPI PUSH1 0x40 MLOAD PUSH3 0x461BCD PUSH1 0xE5 SHL DUP2 MSTORE PUSH1 0x20 PUSH1 0x4 DUP3 ADD MSTORE PUSH1 0x17 PUSH1 0x24 DUP3 ADD MSTORE PUSH32 0x496E76616C696420636F6D70616E792061646472657373000000000000000000 PUSH1 0x44 DUP3 ADD MSTORE PUSH1 0x64 ADD PUSH2 0x35D JUMP JUMPDEST PUSH1 0x1 PUSH1 0x1 PUSH1 0xA0 SHL SUB DUP3 AND PUSH1 0x0 DUP2 DUP2 MSTORE PUSH1 0x3 PUSH1 0x20 SWAP1 DUP2 MSTORE PUSH1 0x40 SWAP2 DUP3 SWAP1 KECCAK256 DUP1 SLOAD PUSH1 0xFF NOT AND DUP6 ISZERO ISZERO SWAP1 DUP2 OR SWAP1 SWAP2 SSTORE SWAP2 MLOAD SWAP2 DUP3 MSTORE PUSH32 0x4EA7A07F6F43B3D25AC7E77AD1AE0FF61D744B3326CF448FE7E63176071E3FEF SWAP2 ADD JUMPDEST PUSH1 0x40 MLOAD DUP1 SWAP2 SUB SWAP1 LOG2 POP POP JUMP JUMPDEST PUSH2 0x674 PUSH2 0x6BA JUMP JUMPDEST PUSH2 0x289 PUSH2 0x895 JUMP JUMPDEST PUSH2 0x684 PUSH2 0x6BA JUMP JUMPDEST PUSH1 0x1 PUSH1 0x1 PUSH1 0xA0 SHL SUB DUP2 AND PUSH2 0x6AE JUMPI PUSH1 0x40 MLOAD PUSH4 0x1E4FBDF7 PUSH1 0xE0 SHL DUP2 MSTORE PUSH1 0x0 PUSH1 0x4 DUP3 ADD MSTORE PUSH1 0x24 ADD PUSH2 0x35D JUMP JUMPDEST PUSH2 0x6B7 DUP2 PUSH2 0x845 JUMP JUMPDEST POP JUMP JUMPDEST PUSH1 0x0 SLOAD PUSH1 0x1 PUSH1 0x1 PUSH1 0xA0 SHL SUB AND CALLER EQ PUSH2 0x289 JUMPI PUSH1 0x40 MLOAD PUSH4 0x118CDAA7 PUSH1 0xE0 SHL DUP2 MSTORE CALLER PUSH1 0x4 DUP3 ADD MSTORE PUSH1 0x24 ADD PUSH2 0x35D JUMP JUMPDEST PUSH2 0x6EF PUSH2 0x8D8 JUMP JUMPDEST PUSH1 0x0 DUP1 SLOAD PUSH1 0xFF PUSH1 0xA0 SHL NOT AND SWAP1 SSTORE PUSH32 0x5DB9EE0A495BF2E6FF9C91A7834C1BA4FDD244A5E8AA4E537BD38AEAE4B073AA CALLER JUMPDEST PUSH1 0x40 MLOAD PUSH1 0x1 PUSH1 0x1 PUSH1 0xA0 SHL SUB SWAP1 SWAP2 AND DUP2 MSTORE PUSH1 0x20 ADD PUSH1 0x40 MLOAD DUP1 SWAP2 SUB SWAP1 LOG1 JUMP JUMPDEST PUSH1 0x0 SLOAD PUSH1 0x1 PUSH1 0xA0 SHL SWAP1 DIV PUSH1 0xFF AND ISZERO PUSH2 0x289 JUMPI PUSH1 0x40 MLOAD PUSH4 0xD93C0665 PUSH1 0xE0 SHL DUP2 MSTORE PUSH1 0x4 ADD PUSH1 0x40 MLOAD DUP1 SWAP2 SUB SWAP1 REVERT JUMPDEST PUSH1 0x2 PUSH1 0x1 SLOAD SUB PUSH2 0x78A JUMPI PUSH1 0x40 MLOAD PUSH4 0x3EE5AEB5 PUSH1 0xE0 SHL DUP2 MSTORE PUSH1 0x4 ADD PUSH1 0x40 MLOAD DUP1 SWAP2 SUB SWAP1 REVERT JUMPDEST PUSH1 0x2 PUSH1 0x1 SSTORE JUMP JUMPDEST PUSH1 0x2 SLOAD PUSH1 0x40 MLOAD PUSH4 0x40C10F19 PUSH1 0xE0 SHL DUP2 MSTORE PUSH1 0x1 PUSH1 0x1 PUSH1 0xA0 SHL SUB DUP5 DUP2 AND PUSH1 0x4 DUP4 ADD MSTORE PUSH1 0x1 PUSH1 0x1 PUSH1 0x40 SHL SUB DUP5 AND PUSH1 0x24 DUP4 ADD MSTORE SWAP1 SWAP2 AND SWAP1 PUSH4 0x40C10F19 SWAP1 PUSH1 0x44 ADD PUSH1 0x0 PUSH1 0x40 MLOAD DUP1 DUP4 SUB DUP2 PUSH1 0x0 DUP8 DUP1 EXTCODESIZE ISZERO DUP1 ISZERO PUSH2 0x7E7 JUMPI PUSH1 0x0 DUP1 REVERT JUMPDEST POP GAS CALL SWAP3 POP POP POP DUP1 ISZERO PUSH2 0x7F8 JUMPI POP PUSH1 0x1 JUMPDEST ISZERO PUSH2 0x841 JUMPI PUSH1 0x40 MLOAD PUSH1 0x1 PUSH1 0x1 PUSH1 0x40 SHL SUB DUP3 AND DUP2 MSTORE PUSH1 0x1 PUSH1 0x1 PUSH1 0xA0 SHL SUB DUP4 AND SWAP1 PUSH32 0xF264F72963676B4BBC99B22084BAD9759178B150D93FA94C07965DEE1E365162 SWAP1 PUSH1 0x20 ADD PUSH2 0x660 JUMP JUMPDEST POP POP JUMP JUMPDEST PUSH1 0x0 DUP1 SLOAD PUSH1 0x1 PUSH1 0x1 PUSH1 0xA0 SHL SUB DUP4 DUP2 AND PUSH1 0x1 PUSH1 0x1 PUSH1 0xA0 SHL SUB NOT DUP4 AND DUP2 OR DUP5 SSTORE PUSH1 0x40 MLOAD SWAP2 SWAP1 SWAP3 AND SWAP3 DUP4 SWAP2 PUSH32 0x8BE0079C531659141344CD1FD0A4F28419497F9722A3DAAFE3B4186F6B6457E0 SWAP2 SWAP1 LOG3 POP POP JUMP JUMPDEST PUSH2 0x89D PUSH2 0x73C JUMP JUMPDEST PUSH1 0x0 DUP1 SLOAD PUSH1 0xFF PUSH1 0xA0 SHL NOT AND PUSH1 0x1 PUSH1 0xA0 SHL OR SWAP1 SSTORE PUSH32 0x62E78CEA01BEE320CD4E420270B5EA74000D11B0C9F74754EBDBFC544B05A258 PUSH2 0x71F CALLER SWAP1 JUMP JUMPDEST PUSH1 0x0 SLOAD PUSH1 0x1 PUSH1 0xA0 SHL SWAP1 DIV PUSH1 0xFF AND PUSH2 0x289 JUMPI PUSH1 0x40 MLOAD PUSH4 0x8DFC202B PUSH1 0xE0 SHL DUP2 MSTORE PUSH1 0x4 ADD PUSH1 0x40 MLOAD DUP1 SWAP2 SUB SWAP1 REVERT JUMPDEST DUP1 CALLDATALOAD PUSH1 0x1 PUSH1 0x1 PUSH1 0xA0 SHL SUB DUP2 AND DUP2 EQ PUSH2 0x919 JUMPI PUSH1 0x0 DUP1 REVERT JUMPDEST SWAP2 SWAP1 POP JUMP JUMPDEST PUSH1 0x0 PUSH1 0x20 DUP3 DUP5 SUB SLT ISZERO PUSH2 0x930 JUMPI PUSH1 0x0 DUP1 REVERT JUMPDEST PUSH2 0x939 DUP3 PUSH2 0x902 JUMP JUMPDEST SWAP4 SWAP3 POP POP POP JUMP JUMPDEST PUSH1 0x0 PUSH1 0x20 DUP3 DUP5 SUB SLT ISZERO PUSH2 0x952 JUMPI PUSH1 0x0 DUP1 REVERT JUMPDEST POP CALLDATALOAD SWAP2 SWAP1 POP JUMP JUMPDEST DUP1 CALLDATALOAD PUSH1 0x1 PUSH1 0x1 PUSH1 0x40 SHL SUB DUP2 AND DUP2 EQ PUSH2 0x919 JUMPI PUSH1 0x0 DUP1 REVERT JUMPDEST PUSH1 0x0 DUP1 PUSH1 0x0 DUP1 PUSH1 0x80 DUP6 DUP8 SUB SLT ISZERO PUSH2 0x986 JUMPI PUSH1 0x0 DUP1 REVERT JUMPDEST PUSH2 0x98F DUP6 PUSH2 0x902 JUMP JUMPDEST SWAP4 POP PUSH1 0x20 DUP6 ADD CALLDATALOAD SWAP3 POP PUSH2 0x9A4 PUSH1 0x40 DUP7 ADD PUSH2 0x959 JUMP JUMPDEST SWAP2 POP PUSH2 0x9B2 PUSH1 0x60 DUP7 ADD PUSH2 0x959 JUMP JUMPDEST SWAP1 POP SWAP3 SWAP6 SWAP2 SWAP5 POP SWAP3 POP JUMP JUMPDEST PUSH1 0x0 DUP1 PUSH1 0x0 PUSH1 0x60 DUP5 DUP7 SUB SLT ISZERO PUSH2 0x9D2 JUMPI PUSH1 0x0 DUP1 REVERT JUMPDEST DUP4 CALLDATALOAD SWAP3 POP PUSH2 0x9E2 PUSH1 0x20 DUP6 ADD PUSH2 0x959 JUMP JUMPDEST SWAP2 POP PUSH2 0x9F0 PUSH1 0x40 DUP6 ADD PUSH2 0x959 JUMP JUMPDEST SWAP1 POP SWAP3 POP SWAP3 POP SWAP3 JUMP JUMPDEST PUSH1 0x0 DUP1 PUSH1 0x40 DUP4 DUP6 SUB SLT ISZERO PUSH2 0xA0C JUMPI PUSH1 0x0 DUP1 REVERT JUMPDEST PUSH2 0xA15 DUP4 PUSH2 0x902 JUMP JUMPDEST SWAP2 POP PUSH1 0x20 DUP4 ADD CALLDATALOAD DUP1 ISZERO ISZERO DUP2 EQ PUSH2 0xA2A JUMPI PUSH1 0x0 DUP1 REVERT JUMPDEST DUP1 SWAP2 POP POP SWAP3 POP SWAP3 SWAP1 POP JUMP JUMPDEST PUSH4 0x4E487B71 PUSH1 0xE0 SHL PUSH1 0x0 MSTORE PUSH1 0x11 PUSH1 0x4 MSTORE PUSH1 0x24 PUSH1 0x0 REVERT JUMPDEST PUSH1 0x0 PUSH1 0x1 DUP3 ADD PUSH2 0xA5D JUMPI PUSH2 0xA5D PUSH2 0xA35 JUMP JUMPDEST POP PUSH1 0x1 ADD SWAP1 JUMP JUMPDEST DUP1 DUP3 ADD DUP1 DUP3 GT ISZERO PUSH2 0xA77 JUMPI PUSH2 0xA77 PUSH2 0xA35 JUMP JUMPDEST SWAP3 SWAP2 POP POP JUMP INVALID LOG2 PUSH5 0x6970667358 0x22 SLT KECCAK256 PUSH24 0x7DC55979525A5D072DD2767CD4AA2035D1E9C17040692387 SWAP7 0xA6 MUL BLOCKHASH 0xE8 ADDMOD DUP2 PUSH5 0x736F6C6343 STOP ADDMOD EQ STOP CALLER "
        },
        "methodIdentifiers": {
          "approvedCompanies(address)": "0a149757",
          "companyTotalRewards(address)": "82118e83",
          "getCompanyTotalRewards(address)": "890e2134",
          "getTrackPlayCount(uint256)": "0deb1331",
          "owner()": "8da5cb5b",
          "pause()": "8456cb59",
          "paused()": "5c975abb",
          "recordPlay(uint256,uint64,uint64)": "4f972563",
          "recordPlayByOwner(address,uint256,uint64,uint64)": "479c8b1f",
          "renounceOwnership()": "715018a6",
          "rewardToken()": "f7c618c1",
          "setCompanyApproval(address,bool)": "8426265a",
          "trackPlayCount(uint256)": "b7e1665b",
          "transferOwnership(address)": "f2fde38b",
          "unpause()": "3f4ba83a"
        }
      }
    }
  }
}