{
  "_format": "hh-sol-artifact-1",
  "contractName": "EntryPoint",
  "sourceName": "contracts/AA/EntryPoint.sol",
  "abi": [
    {
      "anonymous": false,
      "inputs": [
        {
          "indexed": true,
          "internalType": "bool",
          "name": "paymasterSuccess",
          "type": "bool"
        }
      ],
      "name": "PaymasterLog",
      "type": "event"
    },
    {
      "anonymous": false,
      "inputs": [
        {
          "indexed": true,
          "internalType": "address",
          "name": "sender",
          "type": "address"
        },
        {
          "indexed": false,
          "internalType": "bool",
          "name": "isActive",
          "type": "bool"
        }
      ],
      "name": "UserOperationHandled",
      "type": "event"
    },
    {
      "inputs": [
        {
          "components": [
            {
              "internalType": "address",
              "name": "sender",
              "type": "address"
            },
            {
              "internalType": "uint256",
              "name": "nonce",
              "type": "uint256"
            },
            {
              "internalType": "bytes",
              "name": "initCode",
              "type": "bytes"
            },
            {
              "internalType": "bytes",
              "name": "callData",
              "type": "bytes"
            },
            {
              "internalType": "uint256",
              "name": "callGasLimit",
              "type": "uint256"
            },
            {
              "internalType": "uint256",
              "name": "verificationGasLimit",
              "type": "uint256"
            },
            {
              "internalType": "uint256",
              "name": "preVerificationGas",
              "type": "uint256"
            },
            {
              "internalType": "uint256",
              "name": "maxFeePerGas",
              "type": "uint256"
            },
            {
              "internalType": "uint256",
              "name": "maxPriorityFeePerGas",
              "type": "uint256"
            },
            {
              "internalType": "bytes",
              "name": "paymasterAndData",
              "type": "bytes"
            },
            {
              "internalType": "bytes",
              "name": "signature",
              "type": "bytes"
            }
          ],
          "internalType": "struct EntryPoint.UserOperation[]",
          "name": "ops",
          "type": "tuple[]"
        }
      ],
      "name": "handleOps",
      "outputs": [],
      "stateMutability": "nonpayable",
      "type": "function"
    },
    {
      "inputs": [
        {
          "internalType": "address",
          "name": "",
          "type": "address"
        }
      ],
      "name": "nonces",
      "outputs": [
        {
          "internalType": "uint256",
          "name": "",
          "type": "uint256"
        }
      ],
      "stateMutability": "view",
      "type": "function"
    }
  ],
  "bytecode": "0x608060405234801561001057600080fd5b50610899806100206000396000f3fe608060405234801561001057600080fd5b50600436106100365760003560e01c8063532d3ac91461003b5780637ecebe0014610050575b600080fd5b61004e610049366004610643565b610082565b005b61007061005e3660046106b8565b60006020819052908152604090205481565b60405190815260200160405180910390f35b60005b818110156104ca57368383838181106100a0576100a06106e8565b90506020028101906100b291906106fe565b90506000806100c460208401846106b8565b6001600160a01b03166001600160a01b031681526020019081526020016000205481602001351461012a5760405162461bcd60e51b815260206004820152600b60248201526a3737b731b29032b93937b960a91b60448201526064015b60405180910390fd5b601461013a61012083018361071f565b90501061029557600061015161012083018361071f565b61015a9161076d565b60601c9050600061017360e084013560808501356107b8565b905060006001600160a01b03831661018e60208601866106b8565b6040516001600160a01b0390911660248201526044810184905260640160408051601f198184030181529181526020820180516001600160e01b0316638acfa3c560e01b179052516101e091906107d5565b6000604051808303816000865af19150503d806000811461021d576040519150601f19603f3d011682016040523d82523d6000602084013e610222565b606091505b50509050806102645760405162461bcd60e51b815260206004820152600e60248201526d1c185e5b585cdd195c8819985a5b60921b6044820152606401610121565b604051811515907f46a91782b86e07d39ef961bc8803608bce6196ab4db428116e13ea39df90dac090600090a25050505b60006102a0826104cf565b905060006102ad82610608565b905060006102be60208501856106b8565b6001600160a01b0316826102d661014087018761071f565b6040516024016102e893929190610804565b60408051601f198184030181529181526020820180516001600160e01b03166378343a6760e01b1790525161031d91906107d5565b6000604051808303816000865af19150503d806000811461035a576040519150601f19603f3d011682016040523d82523d6000602084013e61035f565b606091505b50509050806103a45760405162461bcd60e51b815260206004820152601160248201527034b9ab30b634b229b4b3b71032b93937b960791b6044820152606401610121565b60006103b360208601866106b8565b6001600160a01b031660808601356103ce606088018861071f565b6040516103dc92919061083a565b60006040518083038160008787f1925050503d806000811461041a576040519150601f19603f3d011682016040523d82523d6000602084013e61041f565b606091505b50909150610432905060208601866106b8565b6001600160a01b03167ffabd71a6a054cecabcaaaaf05732bd211bf392251cf8ba90b2077c73e89b66d98260405161046e911515815260200190565b60405180910390a260008061048660208801886106b8565b6001600160a01b03168152602081019190915260400160009081208054916104ad8361084a565b9190505550505050505080806104c29061084a565b915050610085565b505050565b60006104de60208301836106b8565b60208301356104f0604085018561071f565b6040516104fe92919061083a565b604051908190039020610514606086018661071f565b60405161052292919061083a565b604051908190039020608086013560a087013560c088013560e08901356101008a01356105536101208c018c61071f565b60405161056192919061083a565b6040519081900390206105786101408d018d61071f565b60405161058692919061083a565b604080519182900382206001600160a01b03909c1660208301528101999099526060890197909752608088019590955260a087019390935260c086019190915260e0850152610100840152610120830152610140820152610160810191909152610180015b604051602081830303815290604052805190602001209050919050565b6040517f19457468657265756d205369676e6564204d6573736167653a0a3332000000006020820152603c8101829052600090605c016105eb565b6000806020838503121561065657600080fd5b823567ffffffffffffffff8082111561066e57600080fd5b818501915085601f83011261068257600080fd5b81358181111561069157600080fd5b8660208260051b85010111156106a657600080fd5b60209290920196919550909350505050565b6000602082840312156106ca57600080fd5b81356001600160a01b03811681146106e157600080fd5b9392505050565b634e487b7160e01b600052603260045260246000fd5b6000823561015e1983360301811261071557600080fd5b9190910192915050565b6000808335601e1984360301811261073657600080fd5b83018035915067ffffffffffffffff82111561075157600080fd5b60200191503681900382131561076657600080fd5b9250929050565b6bffffffffffffffffffffffff19813581811691601485101561079a5780818660140360031b1b83161692505b505092915050565b634e487b7160e01b600052601160045260246000fd5b80820281158282048414176107cf576107cf6107a2565b92915050565b6000825160005b818110156107f657602081860181015185830152016107dc565b506000920191825250919050565b83815260406020820152816040820152818360608301376000818301606090810191909152601f909201601f1916010192915050565b8183823760009101908152919050565b60006001820161085c5761085c6107a2565b506001019056fea264697066735822122053639eb41a296e4f5a1ff2ad77b4f6386a846758c719560d33839e7e4d317aec64736f6c63430008140033",
  "linkReferences": {},
  "deployedLinkReferences": {}
}