{
  "_format": "hh-sol-artifact-1",
  "contractName": "EntryPoint",
  "sourceName": "contracts/AA/EntryPoint.sol",
  "abi": [
    {
      "anonymous": false,
      "inputs": [
        {
          "indexed": true,
          "internalType": "address",
          "name": "sender",
          "type": "address"
        },
        {
          "indexed": false,
          "internalType": "bool",
          "name": "isActive",
          "type": "bool"
        }
      ],
      "name": "UserOperationHandled",
      "type": "event"
    },
    {
      "inputs": [
        {
          "components": [
            {
              "internalType": "address",
              "name": "sender",
              "type": "address"
            },
            {
              "internalType": "uint256",
              "name": "nonce",
              "type": "uint256"
            },
            {
              "internalType": "bytes",
              "name": "initCode",
              "type": "bytes"
            },
            {
              "internalType": "bytes",
              "name": "callData",
              "type": "bytes"
            },
            {
              "internalType": "uint256",
              "name": "callGasLimit",
              "type": "uint256"
            },
            {
              "internalType": "uint256",
              "name": "verificationGasLimit",
              "type": "uint256"
            },
            {
              "internalType": "uint256",
              "name": "preVerificationGas",
              "type": "uint256"
            },
            {
              "internalType": "uint256",
              "name": "maxFeePerGas",
              "type": "uint256"
            },
            {
              "internalType": "uint256",
              "name": "maxPriorityFeePerGas",
              "type": "uint256"
            },
            {
              "internalType": "bytes",
              "name": "paymasterAndData",
              "type": "bytes"
            },
            {
              "internalType": "bytes",
              "name": "signature",
              "type": "bytes"
            }
          ],
          "internalType": "struct EntryPoint.UserOperation[]",
          "name": "ops",
          "type": "tuple[]"
        }
      ],
      "name": "handleOps",
      "outputs": [],
      "stateMutability": "nonpayable",
      "type": "function"
    },
    {
      "inputs": [
        {
          "internalType": "address",
          "name": "",
          "type": "address"
        }
      ],
      "name": "nonces",
      "outputs": [
        {
          "internalType": "uint256",
          "name": "",
          "type": "uint256"
        }
      ],
      "stateMutability": "view",
      "type": "function"
    }
  ],
  "bytecode": "0x608060405234801561001057600080fd5b50610838806100206000396000f3fe608060405234801561001057600080fd5b50600436106100365760003560e01c8063532d3ac91461003b5780637ecebe0014610050575b600080fd5b61004e6100493660046105e2565b610082565b005b61007061005e366004610657565b60006020819052908152604090205481565b60405190815260200160405180910390f35b60005b8181101561046957368383838181106100a0576100a0610687565b90506020028101906100b2919061069d565b90506000806100c46020840184610657565b6001600160a01b03166001600160a01b031681526020019081526020016000205481602001351461012a5760405162461bcd60e51b815260206004820152600b60248201526a3737b731b29032b93937b960a91b60448201526064015b60405180910390fd5b601461013a6101208301836106be565b9050106102345760006101516101208301836106be565b61015a9161070c565b60601c9050600061017360e08401356080850135610757565b905060006001600160a01b03831661018e6020860186610657565b6040516001600160a01b0390911660248201526044810184905260640160408051601f198184030181529181526020820180516001600160e01b031663078c95c560e21b179052516101e09190610774565b6000604051808303816000865af19150503d806000811461021d576040519150601f19603f3d011682016040523d82523d6000602084013e610222565b606091505b505090508061023057600080fd5b5050505b600061023f8261046e565b9050600061024c826105a7565b9050600061025d6020850185610657565b6001600160a01b0316826102756101408701876106be565b604051602401610287939291906107a3565b60408051601f198184030181529181526020820180516001600160e01b03166378343a6760e01b179052516102bc9190610774565b6000604051808303816000865af19150503d80600081146102f9576040519150601f19603f3d011682016040523d82523d6000602084013e6102fe565b606091505b50509050806103435760405162461bcd60e51b815260206004820152601160248201527034b9ab30b634b229b4b3b71032b93937b960791b6044820152606401610121565b60006103526020860186610657565b6001600160a01b0316608086013561036d60608801886106be565b60405161037b9291906107d9565b60006040518083038160008787f1925050503d80600081146103b9576040519150601f19603f3d011682016040523d82523d6000602084013e6103be565b606091505b509091506103d190506020860186610657565b6001600160a01b03167ffabd71a6a054cecabcaaaaf05732bd211bf392251cf8ba90b2077c73e89b66d98260405161040d911515815260200190565b60405180910390a26000806104256020880188610657565b6001600160a01b031681526020810191909152604001600090812080549161044c836107e9565b919050555050505050508080610461906107e9565b915050610085565b505050565b600061047d6020830183610657565b602083013561048f60408501856106be565b60405161049d9291906107d9565b6040519081900390206104b360608601866106be565b6040516104c19291906107d9565b604051908190039020608086013560a087013560c088013560e08901356101008a01356104f26101208c018c6106be565b6040516105009291906107d9565b6040519081900390206105176101408d018d6106be565b6040516105259291906107d9565b604080519182900382206001600160a01b03909c1660208301528101999099526060890197909752608088019590955260a087019390935260c086019190915260e0850152610100840152610120830152610140820152610160810191909152610180015b604051602081830303815290604052805190602001209050919050565b6040517f19457468657265756d205369676e6564204d6573736167653a0a3332000000006020820152603c8101829052600090605c0161058a565b600080602083850312156105f557600080fd5b823567ffffffffffffffff8082111561060d57600080fd5b818501915085601f83011261062157600080fd5b81358181111561063057600080fd5b8660208260051b850101111561064557600080fd5b60209290920196919550909350505050565b60006020828403121561066957600080fd5b81356001600160a01b038116811461068057600080fd5b9392505050565b634e487b7160e01b600052603260045260246000fd5b6000823561015e198336030181126106b457600080fd5b9190910192915050565b6000808335601e198436030181126106d557600080fd5b83018035915067ffffffffffffffff8211156106f057600080fd5b60200191503681900382131561070557600080fd5b9250929050565b6bffffffffffffffffffffffff1981358181169160148510156107395780818660140360031b1b83161692505b505092915050565b634e487b7160e01b600052601160045260246000fd5b808202811582820484141761076e5761076e610741565b92915050565b6000825160005b81811015610795576020818601810151858301520161077b565b506000920191825250919050565b83815260406020820152816040820152818360608301376000818301606090810191909152601f909201601f1916010192915050565b8183823760009101908152919050565b6000600182016107fb576107fb610741565b506001019056fea2646970667358221220520ff98afab066251afb5a00489f9462b4e29d97b01d82dab3fd270f9ed02a4f64736f6c63430008140033",
  "linkReferences": {},
  "deployedLinkReferences": {}
}