{
  "_format": "hh-sol-artifact-1",
  "contractName": "Paymaster",
  "sourceName": "contracts/AA/Paymaster.sol",
  "abi": [
    {
      "inputs": [
        {
          "internalType": "address",
          "name": "_entryPoint",
          "type": "address"
        }
      ],
      "stateMutability": "nonpayable",
      "type": "constructor"
    },
    {
      "inputs": [
        {
          "internalType": "address",
          "name": "smartAccount",
          "type": "address"
        }
      ],
      "name": "addWhiteList",
      "outputs": [],
      "stateMutability": "nonpayable",
      "type": "function"
    },
    {
      "inputs": [],
      "name": "entryPoint",
      "outputs": [
        {
          "internalType": "address",
          "name": "",
          "type": "address"
        }
      ],
      "stateMutability": "view",
      "type": "function"
    },
    {
      "inputs": [],
      "name": "owner",
      "outputs": [
        {
          "internalType": "address",
          "name": "",
          "type": "address"
        }
      ],
      "stateMutability": "view",
      "type": "function"
    },
    {
      "inputs": [
        {
          "internalType": "address",
          "name": "smartAccount",
          "type": "address"
        }
      ],
      "name": "removeWhiteList",
      "outputs": [],
      "stateMutability": "nonpayable",
      "type": "function"
    },
    {
      "inputs": [
        {
          "internalType": "address",
          "name": "smartAccount",
          "type": "address"
        },
        {
          "internalType": "uint256",
          "name": "amount",
          "type": "uint256"
        }
      ],
      "name": "validatePaymasterUserOp",
      "outputs": [
        {
          "internalType": "bool",
          "name": "",
          "type": "bool"
        }
      ],
      "stateMutability": "view",
      "type": "function"
    },
    {
      "inputs": [
        {
          "internalType": "address",
          "name": "",
          "type": "address"
        }
      ],
      "name": "whiteList",
      "outputs": [
        {
          "internalType": "bool",
          "name": "",
          "type": "bool"
        }
      ],
      "stateMutability": "view",
      "type": "function"
    }
  ],
  "bytecode": "0x60c060405234801561001057600080fd5b506040516103e63803806103e683398101604081905261002f91610044565b6001600160a01b03166080523360a052610074565b60006020828403121561005657600080fd5b81516001600160a01b038116811461006d57600080fd5b9392505050565b60805160a0516103396100ad6000396000818160cc0152818161014b015261024d01526000818161010b01526101a301526103396000f3fe608060405234801561001057600080fd5b50600436106100625760003560e01c80632042e5c214610067578063372c12b11461007c5780638acfa3c5146100b45780638da5cb5b146100c7578063b0d691fe14610106578063e7cd4a041461012d575b600080fd5b61007a6100753660046102b7565b610140565b005b61009f61008a3660046102b7565b60006020819052908152604090205460ff1681565b60405190151581526020015b60405180910390f35b61009f6100c23660046102d9565b610196565b6100ee7f000000000000000000000000000000000000000000000000000000000000000081565b6040516001600160a01b0390911681526020016100ab565b6100ee7f000000000000000000000000000000000000000000000000000000000000000081565b61007a61013b3660046102b7565b610242565b336001600160a01b037f0000000000000000000000000000000000000000000000000000000000000000161461017557600080fd5b6001600160a01b03166000908152602081905260409020805460ff19169055565b6000336001600160a01b037f000000000000000000000000000000000000000000000000000000000000000016146101cd57600080fd5b6001600160a01b03831660009081526020819052604090205460ff166102395760405162461bcd60e51b815260206004820152601760248201527f596f75277265206e6f74206f6e2077686974654c697374000000000000000000604482015260640160405180910390fd5b50600192915050565b336001600160a01b037f0000000000000000000000000000000000000000000000000000000000000000161461027757600080fd5b6001600160a01b03166000908152602081905260409020805460ff19166001179055565b80356001600160a01b03811681146102b257600080fd5b919050565b6000602082840312156102c957600080fd5b6102d28261029b565b9392505050565b600080604083850312156102ec57600080fd5b6102f58361029b565b94602093909301359350505056fea26469706673582212204650131f34265efe6a646e160b7782c7f79f99511c937efbdab3bf8536bf640b64736f6c63430008140033",
  "linkReferences": {},
  "deployedLinkReferences": {}
}