{
  "_format": "hh-sol-artifact-1",
  "contractName": "SmartAccountFactory",
  "sourceName": "contracts/AA/SmartAccountFactory.sol",
  "abi": [
    {
      "inputs": [
        {
          "internalType": "address",
          "name": "_entryPoint",
          "type": "address"
        }
      ],
      "stateMutability": "nonpayable",
      "type": "constructor"
    },
    {
      "inputs": [
        {
          "internalType": "address",
          "name": "owner",
          "type": "address"
        }
      ],
      "name": "createAccount",
      "outputs": [
        {
          "internalType": "address",
          "name": "smartAccount",
          "type": "address"
        }
      ],
      "stateMutability": "nonpayable",
      "type": "function"
    },
    {
      "inputs": [
        {
          "internalType": "address",
          "name": "owner",
          "type": "address"
        }
      ],
      "name": "getAccount",
      "outputs": [
        {
          "internalType": "address",
          "name": "",
          "type": "address"
        }
      ],
      "stateMutability": "view",
      "type": "function"
    },
    {
      "inputs": [
        {
          "internalType": "address",
          "name": "owner",
          "type": "address"
        }
      ],
      "name": "getAccountAddress",
      "outputs": [
        {
          "internalType": "address",
          "name": "",
          "type": "address"
        }
      ],
      "stateMutability": "view",
      "type": "function"
    }
  ],
  "bytecode": "0x60a060405234801561001057600080fd5b5060405161093638038061093683398101604081905261002f91610040565b6001600160a01b0316608052610070565b60006020828403121561005257600080fd5b81516001600160a01b038116811461006957600080fd5b9392505050565b6080516108a461009260003960008181610124015261028301526108a46000f3fe608060405234801561001057600080fd5b50600436106100415760003560e01c80635872fe45146100465780639859387b14610075578063fbcbc0f114610088575b600080fd5b610059610054366004610365565b6100b4565b6040516001600160a01b03909116815260200160405180910390f35b610059610083366004610365565b6101d2565b610059610096366004610365565b6001600160a01b039081166000908152602081905260409020541690565b6040516001600160601b0319606083901b16602082015260009081906034016040516020818303038152906040528051906020012090506000604051806020016100fd90610358565b601f1982820381018352601f9091011660408181526001600160a01b0387811660208401527f0000000000000000000000000000000000000000000000000000000000000000169082015260600160408051601f198184030181529082905261016992916020016103c5565b60408051808303601f1901815282825280516020918201206001600160f81b0319828501523060601b6001600160601b03191660218501526035840195909552605580840195909552815180840390950185526075909201905282519201919091209392505050565b6001600160a01b038181166000908152602081905260408120549091161561024a5760405162461bcd60e51b815260206004820152602160248201527f596f7520616c7265616479206372656174656420536d6172744163636f756e746044820152602160f81b606482015260840160405180910390fd5b60006040518060200161025c90610358565b601f1982820381018352601f9091011660408181526001600160a01b0386811660208401527f0000000000000000000000000000000000000000000000000000000000000000169082015260600160408051601f19818403018152908290526102c892916020016103c5565b60408051601f19818403018152908290526001600160601b0319606086901b1660208301529150600090603401604051602081830303815290604052805190602001209050808251602084016000f59250823b61032457600080fd5b50506001600160a01b03918216600090815260208190526040902080546001600160a01b0319169282169290921790915590565b61048c806103e383390190565b60006020828403121561037757600080fd5b81356001600160a01b038116811461038e57600080fd5b9392505050565b6000815160005b818110156103b6576020818501810151868301520161039c565b50600093019283525090919050565b60006103da6103d48386610395565b84610395565b94935050505056fe608060405234801561001057600080fd5b5060405161048c38038061048c83398101604081905261002f9161007c565b600080546001600160a01b039384166001600160a01b031991821617909155600180549290931691161790556100af565b80516001600160a01b038116811461007757600080fd5b919050565b6000806040838503121561008f57600080fd5b61009883610060565b91506100a660208401610060565b90509250929050565b6103ce806100be6000396000f3fe60806040526004361061002d5760003560e01c806378343a6714610039578063b61d27f61461006d57600080fd5b3661003457005b600080fd5b34801561004557600080fd5b506100596100543660046102ad565b61008f565b604051901515815260200160405180910390f35b34801561007957600080fd5b5061008d6100883660046102f9565b6100f1565b005b60008054604080516020601f86018190048102820181019092528481526001600160a01b03909216916100df91879190879087908190840183828082843760009201919091525061017c92505050565b6001600160a01b031614949350505050565b6001546001600160a01b0316331461010857600080fd5b6000846001600160a01b0316848484604051610125929190610361565b60006040518083038185875af1925050503d8060008114610162576040519150601f19603f3d011682016040523d82523d6000602084013e610167565b606091505b505090508061017557600080fd5b5050505050565b60008060008061018b856101fc565b6040805160008152602081018083528b905260ff8516918101919091526060810183905260808101829052929550909350915060019060a0016020604051602081039080840390855afa1580156101e6573d6000803e3d6000fd5b5050506020604051035193505050505b92915050565b6000806000835160411461020f57600080fd5b50505060608101516020820151604083015160009290921a91601b83101561023f5761023c601b84610371565b92505b8260ff16601b148061025457508260ff16601c145b61025d57600080fd5b9193909250565b60008083601f84011261027657600080fd5b50813567ffffffffffffffff81111561028e57600080fd5b6020830191508360208285010111156102a657600080fd5b9250929050565b6000806000604084860312156102c257600080fd5b83359250602084013567ffffffffffffffff8111156102e057600080fd5b6102ec86828701610264565b9497909650939450505050565b6000806000806060858703121561030f57600080fd5b84356001600160a01b038116811461032657600080fd5b935060208501359250604085013567ffffffffffffffff81111561034957600080fd5b61035587828801610264565b95989497509550505050565b8183823760009101908152919050565b60ff81811683821601908111156101f657634e487b7160e01b600052601160045260246000fdfea264697066735822122051051635e2e534b9fd5d6a3271c45ddccebfa23dce22a335c0263f3fcad84d8b64736f6c63430008140033a2646970667358221220d2deae65ccecbfbb67d52e7f5598023f8a5d1c0beee0d594161053a941ac4b3864736f6c63430008140033",
  "linkReferences": {},
  "deployedLinkReferences": {}
}